:020000040000FA
:0400080010EF10F0F5
:0800180000EF20F0FFFFFFFFE5
:10002000FFFFFFFFFFFFFFFFFFFFFFFFFFFFFFFFE0
:10003000FFFFFFFFFFFFFFFFFFFFFFFFFFFFFFFFD0
:10004000FFFFFFFFFFFFFFFFFFFFFFFFFFFFFFFFC0
:10005000FFFFFFFFFFFFFFFFFFFFFFFFFFFFFFFFB0
:10006000FFFFFFFFFFFFFFFFFFFFFFFFFFFFFFFFA0
:0A007000FFFFFFFFFFFFFFFFFFFF90
:1020000000962000FA20008C2100322200CE22000F
:102010006A2300A623001E3D0000F7EC1DF012000D
:10202000D8CFE5FFE0CFE5FFE56EF3CFE5FFF4CFD6
:10203000E5FFE9CFE5FFEACFE5FFFACFE5FFFBCF0C
:10204000E5FFD9CFE5FFE1CFD9FFF6CFE5FFF7CF29
:10205000E5FFF8CFE5FFF5CFE5FF69EC1EF0E4CF33
:10206000F5FFE4CFF8FFE4CFF7FFE4CFF6FFE4CFCE
:10207000D9FFE4CFFBFFE4CFFAFFE4CFEAFFE4CFE0
:10208000E9FFE4CFF4FFE4CFF3FFE450E4CFE0FF57
:10209000E4CFD8FF100012010002FF00FF08D804AF
:1020A000AAFE00010102030309021200010104C09B
:1020B000000904000000FFFFFF04090220000102E4
:1020C00005C0000904000002FFFFFF05070501022B
:1020D00040000007058202400000090220000103C1
:1020E00004C0000904000002FFFFFF06070501020B
:1020F00040000007058202400000A82000BA20002E
:10210000DA2000000403090426034A006500610088
:102110006E002D00500069006500720072006500BD
:1021200020004D0041004E0044004F004E002203AD
:10213000500069006E006700750069006E006F0056
:102140002000500072006F006A0065006300740098
:10215000040331001003440065006600610075004F
:102160006C0074000C0346006C0061007300680092
:102170001C03500069006E006700750069006E0066
:102180006F0020006100700070006C0004210008E6
:1021900021002E21005021005421006421007021D3
:1021A00000002E0000223D00223D00223D00223D85
:1021B00000223D00223D00223D00223D00223D0044
:1021C000223D00223D00223D00223D00223D002212
:1021D0003D002E00003A0000420000223D00223D5A
:1021E00000223D00223D00223D00223D00223D0014
:1021F000223D00223D00223D00223D00223D0022E2
:102200003D002E00005A3C00F23C00223D00223DE1
:1022100000223D00223D00223D00223D00223D00E3
:10222000223D00223D00223D00223D00223D0022B1
:102230003D00A22100A22100D22100022200320092
:1022400000223D00223D00223D00223D00223D00B3
:10225000223D00223D00223D00223D00223D002281
:102260003D00223D00223D00223D00223D00320083
:1022700000223D00460000223D00223D00223D009C
:10228000223D00223D00223D00223D00223D002251
:102290003D00223D00223D00223D00223D00320053
:1022A00000223D002E3800223D00223D00223D004C
:1022B000223D00223D00223D00223D00223D002221
:1022C0003D00223D00223D00223D00223D003E22F5
:1022D000003E22006E22009E22002E0000223D00C1
:1022E000223D00223D00223D00223D00223D0022F1
:1022F0003D00223D00223D00223D00223D00223DC6
:1023000000223D00223D00223D002E00003E000044
:10231000223D00223D00223D00223D00223D0022C0
:102320003D00223D00223D00223D00223D00223D95
:1023300000223D00223D00223D002E00008C310095
:10234000223D00223D00223D00223D00223D002290
:102350003D00223D00223D00223D00223D00223D65
:1023600000223D00223D00223D00DA2200DA220058
:102370000A23003A2300360000223D00223D0022BD
:102380003D00223D00223D00223D00223D00223D35
:1023900000223D00223D00223D00223D00223D0062
:1023A000223D00223D00762300762300762300762E
:1023B0002300010204081020408040800102040133
:1023C00002040820010204010204081020408010C9
:1023D00001010101010101010202020202000000EB
:1023E00000000404040303030303030303000203C4
:1023F000040601020304127A000048E8010090D0AC
:10240000030020A1070040420F0080841E00000945
:102410003D0000127A00496E586F757263650000C6
:102420005072756562612E2E2E2E2E00E806E56E26
:10243000090E3BEC00F0E4500BE000D0E56E090E15
:102440003BEC00F000D0E450000000D0E82EF6D7BE
:102450001200D9CFE5FFE1CFD9FF00C0E5FF01C0F1
:10246000E5FF02C0E5FF03C0E5FF04C0E5FF020E83
:10247000DBCF00F0030EDBCF01F0D00E0024026EA4
:10248000036A230E0322046A000E042202C0F6FF30
:1024900003C0F7FF04C0F8FF0900F5CF02F0050EF6
:1024A000025CD8B0F8D0FA6AFB6A0234FA36E83433
:1024B000FA36FC0BC40FE56E240EFA22000EFB2246
:1024C000E450F96E6CEF12F099EF12F0C6EF12F0D3
:1024D000F3EF12F020EF13F0015015E0B20E0024DC
:1024E000026E036A230E0322046A000E042202C055
:1024F000F6FF03C0F7FF04C0F8FF0900F5CF02F0B4
:1025000002508912C8D0B20E0024026E036A230E54
:102510000322046A000E042202C0F6FF03C0F7FF84
:1025200004C0F8FF0900F5CF02F00250FF08891639
:10253000B2D0015015E0B20E0024026E036A230EE1
:102540000322046A000E042202C0F6FF03C0F7FF54
:1025500004C0F8FF0900F5CF02F002508A129BD0A8
:10256000B20E0024026E036A230E0322046A000ED8
:10257000042202C0F6FF03C0F7FF04C0F8FF090001
:10258000F5CF02F00250FF088A1685D0015015E001
:10259000B20E0024026E036A230E0322046A000EA8
:1025A000042202C0F6FF03C0F7FF04C0F8FF0900D1
:1025B000F5CF02F002508B126ED0B20E0024026EE4
:1025C000036A230E0322046A000E042202C0F6FFEF
:1025D00003C0F7FF04C0F8FF0900F5CF02F0025076
:1025E000FF088B1658D0015015E0B20E0024026E81
:1025F000036A230E0322046A000E042202C0F6FFBF
:1026000003C0F7FF04C0F8FF0900F5CF02F0025045
:102610008C1241D0B20E0024026E036A230E0322F4
:10262000046A000E042202C0F6FF03C0F7FF04C0D4
:10263000F8FF0900F5CF02F00250FF088C162BD0EE
:10264000015015E0B20E0024016E026A230E022230
:10265000036A000E032201C0F6FF02C0F7FF03C0A9
:10266000F8FF0900F5CF01F001508D1214D0016A76
:10267000026AB20E0026230E0122000E022200C0C2
:10268000F6FF01C0F7FF02C0F8FF0900F5CF00F028
:102690000050FF088D16E4CF04F0E4CF03F0E4CF40
:1026A00002F0E4CF01F0E4CF00F0E4CFD9FF120054
:1026B000D9CFE5FFE1CFD9FF00C0E5FF01C0E5FFBD
:1026C00002C0E5FF03C0E5FF04C0E5FF020EDBCF5B
:1026D00000F0030EDBCF01F0D00E0024026E036A7F
:1026E000230E0322046A000E042202C0F6FF03C078
:1026F000F7FF04C0F8FF0900F5CF02F0050E025CF9
:10270000D8B0F8D0FA6AFB6A0234FA36E834FA36FE
:10271000FC0B220FE56E270EFA22000EFB22E4507E
:10272000F96E9BEF13F0C8EF13F0F5EF13F022EF03
:1027300014F04FEF14F0015015E0B20E0024026EB9
:10274000036A230E0322046A000E042202C0F6FF6D
:1027500003C0F7FF04C0F8FF0900F5CF02F00250F4
:102760009212C8D0B20E0024026E036A230E032216
:10277000046A000E042202C0F6FF03C0F7FF04C083
:10278000F8FF0900F5CF02F00250FF089216B2D010
:10279000015015E0B20E0024026E036A230E0322DC
:1027A000046A000E042202C0F6FF03C0F7FF04C053
:1027B000F8FF0900F5CF02F0025093129BD0B20E41
:1027C0000024026E036A230E0322046A000E042210
:1027D00002C0F6FF03C0F7FF04C0F8FF0900F5CF01
:1027E00002F00250FF08931685D0015015E0B20E9A
:1027F0000024026E036A230E0322046A000E0422E0
:1028000002C0F6FF03C0F7FF04C0F8FF0900F5CFD0
:1028100002F0025094126ED0B20E0024026E036ACF
:10282000230E0322046A000E042202C0F6FF03C036
:10283000F7FF04C0F8FF0900F5CF02F00250FF08CF
:10284000941658D0015015E0B20E0024026E036AAF
:10285000230E0322046A000E042202C0F6FF03C006
:10286000F7FF04C0F8FF0900F5CF02F002509512FF
:1028700041D0B20E0024026E036A230E0322046AC2
:10288000000E042202C0F6FF03C0F7FF04C0F8FFE9
:102890000900F5CF02F00250FF0895162BD0015029
:1028A00015E0B20E0024016E026A230E0222036AB2
:1028B000000E032201C0F6FF02C0F7FF03C0F8FFBD
:1028C0000900F5CF01F00150961214D0016A026A96
:1028D000B20E0026230E0122000E022200C0F6FFD7
:1028E00001C0F7FF02C0F8FF0900F5CF00F000506B
:1028F000FF089616E4CF04F0E4CF03F0E4CF02F033
:10290000E4CF01F0E4CF00F0E4CFD9FF120000C023
:10291000E5FF01C0E5FF02C0E5FF03C0E5FF04C01D
:10292000E5FF05C0E5FFD350030B006E0050D8A4AF
:1029300091D0E56A300EE56E000EE56AE56AF0ECCE
:1029400019F0006E040EE126180E0016016AD890E8
:1029500001320032D89001320032D8900132003278
:10296000F20E0024016E026A230E0222036A000E98
:10297000032201C0F6FF02C0F7FF03C0F8FF090001
:10298000F5CF01F0E56A300EE56EE56A010EE56E01
:10299000F0EC19F0026E040EE1260F0E0216EE0E98
:1029A0000024036E046A230E0422056A000E052229
:1029B00003C0F6FF04C0F7FF05C0F8FF0900F5CF1C
:1029C00000F0D8900232025006E00250020A03E002
:1029D0000250060A1FE1E56AE56AE56A0150E56E04
:1029E000E56A7A0EE56E120EE56E000EE56A7AEC87
:1029F00015F0016EF3CF02F0F4CF03F0E9CF04F04D
:102A0000080EE12604C0E9FF03C0F4FF02C0F3FF93
:102A1000015063D0E56AE56AE56A0050E56E050E8F
:102A2000E56EB80EE56ED80EE56E000EE56A36EC82
:102A300018F0006EF3CF01F0F4CF02F0E9CF03F00D
:102A4000080EE12603C0E9FF02C0F4FF01C0F3FF56
:102A5000005043D0D350030B010A06E1E96AF46A3F
:102A6000800EF36EE86A39D0D350030B800F7E0FCF
:102A700030E3D350E838070BE56AE56EE56A040EEB
:102A8000E56E27EC00F0006EF3CF01F0040EE126B6
:102A9000026AF60E0026230E0122000E022200C05A
:102AA000F6FF01C0F7FF02C0F8FF0900F5CF00F004
:102AB0000900F5CF01F00900F5CF02F00900F5CFCC
:102AC00003F003C0E9FF02C0F4FF01C0F3FF0050B0
:102AD00004D0E96AF46AF36AE86AE4CF05F0E4CF67
:102AE00004F0E4CF03F0E4CF02F0E4CF01F0E4CF50
:102AF00000F01200D9CFE5FFE1CFD9FF00C0E5FF1C
:102B000001C0E5FF02C0E5FF03C0E5FF04C0E5FF2B
:102B100005C0E5FF06C0E5FF07C0E5FF08C0E5FF0B
:102B200009C0E5FF0AC0E5FF0BC0E5FF0CC0E5FFEB
:102B30000DC0E5FF020EDBCF00F0030EDBCF01F08E
:102B4000040EDBCF02F0050EDBCF03F0060EDBCF69
:102B500004F0070EDBCF05F0080EDBCF06F0090E00
:102B6000DBCF07F0D88003AED890086A083608504B
:102B70000FE0031C0C6E021C0B6E011C0A6E001C85
:102B8000096E092A0DE10A2A0BE10B4A0C2A08D02A
:102B900000C009F001C00AF002C00BF003C00CF045
:102BA000D88007AED890006A003600500FE0071CAE
:102BB0000D6E061C036E051C026E041C016E012ABC
:102BC0000DE1022A0BE1034A0D2A08D004C001F0EE
:102BD00005C002F006C003F007C00DF00D50E56E11
:102BE0000350E56E0250E56E0150E56E0C50E56E47
:102BF0000B50E56E0A50E56E0950E56E36EC18F0A4
:102C0000016EF3CF02F0F4CF03F0E9CF04F0080E29
:102C1000E1260050081A085016E0041C076E031C39
:102C2000066E021C056E011C006E002A04E1052AD6
:102C300002E1064A072A07C0E9FF06C0F4FF05C003
:102C4000F3FF005007D004C0E9FF03C0F4FF02C047
:102C5000F3FF0150E4CF0DF0E4CF0CF0E4CF0BF024
:102C6000E4CF0AF0E4CF09F0E4CF08F0E4CF07F0B6
:102C7000E4CF06F0E4CF05F0E4CF04F0E4CF03F0B6
:102C8000E4CF02F0E4CF01F0E4CF00F0E4CFD9FFCD
:102C90001200D9CFE5FFE1CFD9FF00C0E5FF01C0A9
:102CA000E5FF020EDBCF00F0030EDBCF01F0020EDA
:102CB000005C02E302019F8700C0A0F202019C6B4E
:102CC000015005E00050010A02E102019F85E56A1A
:102CD0000F0EE56E92EC19F0E652E652E56A02013B
:102CE0008951E56E29EC12F0E652E652E56A0201DE
:102CF0008B51E56E29EC12F0E652E65202019FB9C3
:102D00002AD0030EE56E63EC1BF0E652E56A050E71
:102D1000E56E92EC19F0E652E652030EE56E63ECB6
:102D20001BF0E652E56A960EE56E0CEC1DF0E652DD
:102D3000E652030EE56E63EC1BF0E652E56A960E72
:102D4000E56E0CEC1DF0E652E652020EE56E63EC09
:102D50001BF0E65223D0200E02019F11E56ECEEC4F
:102D60001DF0E652E56A050EE56E92EC19F0E652AA
:102D7000E652200E02019F11E56ECEEC1DF0E652E8
:102D8000E56A050EE56E92EC19F0E652E652200E69
:102D900002019F11E56ECEEC1DF0E652200E0201FD
:102DA0009F11E56ECEEC1DF0E652040E0201A16FFC
:102DB0000C0EE56ECEEC1DF0E652010EE56ECEEC8B
:102DC0001DF0E652E56A020EE56E92EC19F0E6524D
:102DD000E652020E02019A6F060EE56ECEEC1DF071
:102DE000E652E4CF01F0E4CF00F0E4CFD9FF1200C7
:102DF000D9CFE5FFE1CFD9FF00C0E5FF01C0E5FF76
:102E000002C0E5FF03C0E5FF04C0E5FF05C0E5FF24
:102E100006C0E5FF07C0E5FF08C0E5FF020EDBCFF7
:102E200000F0030EDBCF89F2040EDBCF8AF2050E31
:102E3000DBCF8BF2060EDBCF01F0070EDBCF02F00B
:102E4000080EDBCF03F0090EDBCF04F00A0EDBCF58
:102E500005F00B0EDBCF06F00C0EDBCF07F00D0EEE
:102E6000DBCF08F001500201806F0250816F0350E8
:102E7000826F0450836F0550846F0650856F075032
:102E8000866F0850876FE56A02018951E56E58EC3C
:102E900013F0E652E652E56A02018B51E56E58ECFA
:102EA00013F0E652E65200501BE002019F6B006AED
:102EB000800E0024016E026A020E022201C0E9FFA8
:102EC00002C0EAFFEFCF01F0E56A0150E56E58EC71
:102ED00013F0E652E652002A040E005CE9E31BD030
:102EE000100E02019F6F006A800E0024016E026ABC
:102EF000020E022201C0E9FF02C0EAFFEFCF01F09B
:102F0000E56A0150E56E58EC13F0E652E652002AED
:102F1000080E005CE9E3E4CF08F0E4CF07F0E4CF6B
:102F200006F0E4CF05F0E4CF04F0E4CF03F0E4CF03
:102F300002F0E4CF01F0E4CF00F0E4CFD9FF1200BB
:102F4000D9CFE5FFE1CFD9FF00C0E5FF01C0E5FF24
:102F500002C0E5FF03C0E5FF04C0E5FF05C0E5FFD3
:102F600006C0E5FF07C0E5FF08C0E5FF09C0E5FFB3
:102F70000AC0E5FF0BC0E5FF0CC0E5FF0DC0E5FF93
:102F8000020EDBCF00F0030EDBCF01F0040EDBCF2F
:102F900002F0050EDBCF03F0060EDBCF04F0070EC8
:102FA000DBCF05F0080EDBCF06F0090EDBCF07F014
:102FB0000A0EDBCF08F00B0EDBCF09F006C00AF0DB
:102FC0000B6A07C00CF00D6A0C500A260D500B223C
:102FD00008C00CF00C500A260D500B2209C00CF052
:102FE0000C500A260D500B220A5005E10B5003E14C
:102FF0000A6A0A2A01D00A6A0950E56E0850E56E8D
:103000000750E56E0650E56E0550E56E0450E56E1E
:103010000350E56E0250E56E0150E56EE568005024
:10302000E56E0A50E56EF8EC16F00C0EE126E4CFE2
:103030000DF0E4CF0CF0E4CF0BF0E4CF0AF0E4CFD6
:1030400009F0E4CF08F0E4CF07F0E4CF06F0E4CFD6
:1030500005F0E4CF04F0E4CF03F0E4CF02F0E4CFD6
:1030600001F0E4CF00F0E4CFD9FF1200D9CFE5FFA3
:10307000E1CFD9FF00C0E5FF01C0E5FF02C0E5FFD9
:1030800003C0E5FF04C0E5FF05C0E5FF06C0E5FF9E
:1030900007C0E5FF08C0E5FF09C0E5FF0AC0E5FF7E
:1030A0000BC0E5FF0CC0E5FF0DC0E5FF020EDBCF56
:1030B00000F0030EDBCF01F0040EDBCF02F0050EB3
:1030C000DBCF03F0060EDBCF04F0070EDBCF05F0FD
:1030D000080EDBCF06F0090EDBCF07F0086A096A9D
:1030E0000A6A0B6A200E0C6E0350800BE8440D6ECA
:1030F00000500026013602360336085008260936ED
:103100000A360B360D50D8A4088007500B5C08E136
:1031100006500A5C05E10550095C02E10450085CB8
:1031200009E30450085E0550095A06500A5A075030
:103130000B5A00800C040D6E0DC00CF00D50D4E144
:1031400003C0E9FF02C0F4FF01C0F3FF0050E4CF69
:103150000DF0E4CF0CF0E4CF0BF0E4CF0AF0E4CFB5
:1031600009F0E4CF08F0E4CF07F0E4CF06F0E4CFB5
:1031700005F0E4CF04F0E4CF03F0E4CF02F0E4CFB5
:1031800001F0E4CF00F0E4CFD9FF120000C0E5FF6A
:1031900001C0E5FF02C0E5FF03C0E5FF010E040129
:1031A000095DD8A047D0400E095DD8B043D0006A71
:1031B00004010951005C32E2400E0024016E026AF3
:1031C000060E022201C0E9FF02C0EAFFEFCF01F0C4
:1031D00002019D513F0A04E002019D29026E02D0C6
:1031E000010E026E02019E5102180FE09DC202F014
:1031F00002019D2B036A000E0226020E032202C06A
:10320000E9FF03C0EAFF01C0EFFF02019D51400A40
:1032100003E1010E02019D6F002ACAD7400E04018E
:10322000096F08BD03D0C80E086F0DD0880E0401C9
:10323000086F09D0400E0401096F400E0A6F060E98
:103240000B6F840E086FE4CF03F0E4CF02F0E4CFFD
:1032500001F0E4CF00F01200D9CFE5FFE1CFD9FFB4
:1032600000C0E5FF01C0E5FF02C0E5FF03C0E5FFC8
:1032700004C0E5FF05C0E5FF06C0E5FF07C0E5FFA8
:1032800008C0E5FF020EDBCF00F0030EDBCF01F03C
:10329000040EDBCF02F0036AF7EC1DF0046E04505D
:1032A0002BE003C004F0032A056A066A00500426D6
:1032B00001500522025006229EC207F002019E2BF9
:1032C000086A000E0726020E082207C0E9FF08C0A0
:1032D000EAFFEFCF07F007C0E5FF04C0E9FF05C034
:1032E000F3FF065031EC00F002019E51400AD4E198
:1032F000010E02019E6FD0D70350E4CF08F0E4CF57
:1033000007F0E4CF06F0E4CF05F0E4CF04F0E4CF1B
:1033100003F0E4CF02F0E4CF01F0E4CF00F0E4CF1B
:10332000D9FF1200D9CFE5FFE1CFD9FF00C0E5FFFB
:1033300001C0E5FF02C0E5FF03C0E5FF04C0E5FFF3
:1033400005C0E5FF020EDBCF00F0030EDBCF01F07E
:1033500087EC14F0026EF3CF03F0F4CF04F0E9CF62
:1033600005F0D8900532043203320232D89005328B
:10337000043203320232E56A010EE56E860EE56E16
:10338000A00EE56E0550E56E0450E56E0350E56E47
:103390000250E56E36EC18F0026E080EE12600C011
:1033A00004F001C005F0FF0E0026012204500510B4
:1033B00008E00250046EFD0E0426045016EC12F0D4
:1033C000EED7E4CF05F0E4CF04F0E4CF03F0E4CF90
:1033D00002F0E4CF01F0E4CF00F0E4CFD9FF120017
:1033E000D9CFE5FFE1CFD9FF00C0E5FF01C0E5FF80
:1033F00002C0E5FF03C0E5FF04C0E5FF05C0E5FF2F
:1034000006C0E5FF07C0E5FF020EDBCF00F0030EAC
:10341000DBCF01F0040EDBCF02F0050EDBCF03F0B3
:103420000250046E0350056E066A076A0450F86E77
:103430000150046E0250056E0350066E076A045078
:10344000F76E0050F66E0900F5CF00F00900F5CFD9
:1034500001F0026A0150046E036A056A00500326F7
:103460000550042204C0F3FF0350E4CF07F0E4CF7B
:1034700006F0E4CF05F0E4CF04F0E4CF03F0E4CFAE
:1034800002F0E4CF01F0E4CF00F0E4CFD9FF120066
:10349000E56AE56AE56AE56A050EE56E040EE56E25
:1034A000030EE56E020EE56E010EE56E000EE56A96
:1034B000A0EC17F00A0EE126020EE56E100EE56E86
:1034C00049EC16F0E652E652E56A0D0EE56E58EC50
:1034D00013F0E652E6521CEC1EF060EC1EF0040EF7
:1034E000E56E000EE56AA3EC1BF0E652E652000E14
:1034F000E56E240EE56E160EE56EE2EC1AF0030E94
:10350000E126010EE56E020EE56EA3EC1BF0E6521D
:10351000E652000EE56E240EE56E200EE56EE2EC3E
:103520001AF0030EE12657EC1EF01200E40EF66EC0
:103530003C0EF76E000EF86E0900F550056E09009E
:10354000F550066E055002E106503BE00900F550CB
:10355000006E0900F550016E0900F550026E090079
:103560000900F550E96E0900F550EA6E09000900FE
:103570000900F550036E0900F550046E09000900BA
:10358000F6CF07F0F7CF08F0F8CF09F000C0F6FF4C
:1035900001C0F7FF02C0F8FF035002E1045007E04A
:1035A0000900F550EE6E0306F8E20406F9D707C0ED
:1035B000F6FF08C0F7FF09C0F8FF0506C4E20606DB
:1035C000C5D71200D9CFE5FFE1CFD9FF00C0E5FF95
:1035D00001C0E5FF02C0E5FF03C0E5FF04C0E5FF51
:1035E00005C0E5FF020EDBCF00F0030EDBCF01F0DC
:1035F000040EDBCF02F0036A03500024046EE86A75
:103600000120056EE86A022004C0E9FF05C0F3FF4F
:1036100029EC00F0046E045007E00450E56EB8ECAD
:103620001DF0E652032AE8D7E4CF05F0E4CF04F01A
:10363000E4CF03F0E4CF02F0E4CF01F0E4CF00F0F8
:10364000E4CFD9FF1200D9CFE5FFE1CFD9FF00C009
:10365000E5FF01C0E5FF02C0E5FF03C0E5FF020E84
:10366000DBCF00F0016A800E0124026E036A020EB5
:10367000032202C0E9FF03C0EAFFEFCF02F000C05F
:1036800003F0015005E0E86CD8900332010FFDE330
:10369000010E03160350E56E0250E56E29EC12F0A0
:1036A000E652E652012A080E015CDDE30AEC1EF048
:1036B000E4CF03F0E4CF02F0E4CF01F0E4CF00F078
:1036C000E4CFD9FF1200D9CFE5FFE1CFD9FF00C089
:1036D000E5FF01C0E5FF02C0E5FF03C0E5FF020E04
:1036E000DBCF00F0016A800E0124026E036A020E35
:1036F000032202C0E9FF03C0EAFFEFCF02F000C0DF
:1037000003F0015005E0E86CD8900332010FFDE3AF
:10371000010E03160350E56E0250E56E29EC12F01F
:10372000E652E652012A040E015CDDE30AEC1EF0CB
:10373000E4CF03F0E4CF02F0E4CF01F0E4CF00F0F7
:10374000E4CFD9FF1200D9CFE5FFE1CFD9FF00C008
:10375000E5FF01C0E5FF02C0E5FF020EDBCF00F090
:10376000030EDBCF01F00201906B400E916F140E3F
:10377000926F540E936F0201A051010A07E1140EDB
:103780000201916F280E926F3C0E936F026A900EA9
:103790000126020E022201C0E9FF02C0EAFFEFCFBC
:1037A00001F001500026008E0050E56ECEEC1DF0B9
:1037B000E652E4CF02F0E4CF01F0E4CF00F0E4CF32
:1037C000D9FF120000C0E5FF01C0E5FF0201A26BB6
:1037D0000DEC10F0006E005025E0800EE56E020E3C
:1037E000E56E400EE56E34EC1DF00201A26F030E93
:1037F000E126400EA225006E016A020E012200C0E1
:10380000E9FF01C0EAFFEF6AA2510CE03EEC1EF0B6
:10381000800EE56E020EE56E400EE56EE2EC1AF0EB
:10382000030EE126E4CF01F0E4CF00F01200020124
:103830009751981103E1020199512CE1000E020108
:10384000985D02E1400E975DD8700201996B99373F
:10385000020197510401156F800EE56E020EE56EB0
:10386000970EE56EE56A400EE56E800EE56E020E7F
:10387000E56E940EE56E020EE56E15EC00F0090E95
:10388000E126040114BD03D0C80E146F03D0880EC6
:103890000401146F1200D9CFE5FFE1CFD9FF00C0BA
:1038A000E5FF01C0E5FF020EDBCF00F0030EDBCF2A
:1038B00001F00150E56E02018951E56E29EC12F02C
:1038C000E652E65202019FA906D00050E56E23ECB5
:1038D0001BF0E6520BD000380F0BE56E63EC1BF0CB
:1038E000E6520050E56E63EC1BF0E652E4CF01F0C7
:1038F000E4CF00F0E4CFD9FF1200000E0201985D82
:1039000002E1400E975DD8700201996B9937020170
:1039100097510401156F000E166F060E176F800E7B
:10392000E56E020EE56E970EE56EE56A400EE56EF9
:10393000800EE56E020EE56E940EE56E020EE56EEB
:1039400015EC00F0090EE126040114BD03D0C80EE9
:10395000146F03D0880E0401146F1200D9CFE5FF55
:10396000E1CFD9FF00C0E5FF01C0E5FF02C0E5FFE0
:1039700003C0E5FF020EDBCF00F0030EDBCF01F04A
:10398000040EDBCF02F0050EDBCF03F00350E56E33
:103990000250E56E0150E56E0050E56E84EC1DF0BE
:1039A000040EE126E4CF03F0E4CF02F0E4CF01F00F
:1039B000E4CF00F0E4CFD9FF1200D9CFE5FFE1CF8B
:1039C000D9FF00C0E5FF01C0E5FF02C0E5FF03C06D
:1039D000E5FF020EDBCF00F0030EDBCF01F0040E9B
:1039E000DBCF02F0050EDBCF03F00350E56E025093
:1039F000E56E0150E56E0050E56E84EC1DF0040E9E
:103A0000E126E4CF03F0E4CF02F0E4CF01F0E4CF0D
:103A100000F0E4CFD9FF1200D9CFE5FFE1CFD9FF05
:103A200000C0E5FF01C0E5FF02C0E5FF03C0E5FF00
:103A3000020EDBCF00F0030EDBCF01F0026A036A57
:103A40000150035C02E10050025C03E2024A032AD7
:103A5000F7D7E4CF03F0E4CF02F0E4CF01F0E4CFF6
:103A600000F0E4CFD9FF1200D9CFE5FFE1CFD9FFB5
:103A700000C0E5FF01C0E5FF02C0E5FF020EDBCF9D
:103A800000F0030EDBCF01F0040EDBCF02F002509A
:103A9000E56E0150E56E0050E56E2CEC19F0006EFD
:103AA000030EE1260050E4CF02F0E4CF01F0E4CFB2
:103AB00000F0E4CFD9FF120000C0E5FF01C0E5FF30
:103AC00002C0E5FF006AEE503B10001015E09EC2F8
:103AD00001F002019E2B026A000E0126020E022254
:103AE00001C0E9FF02C0EAFFEFCF00F09E51400A9B
:103AF00003E1010E02019E6F0050E4CF02F0E4CF1B
:103B000001F0E4CF00F01200D9CFE5FFE1CFD9FFFB
:103B100000C0E5FF020EDBCF94F2030EDBCF95F27F
:103B2000040EDBCF96F2050EDBCF00F000C097F25B
:103B30000201986B7DEC1CF0E4CF00F0E4CFD9FFDC
:103B40001200D0B202D0930ED012D350030B800FCC
:103B50007E0F02E3D3A4FED7E3EC1DF085EC1EF04C
:103B60007FEC1EF048EC1AF0E2EC1BF0FDD71200DF
:103B7000D9CFE5FFE1CFD9FF00C0E5FF020EDBCFD3
:103B800000F0010EE56E0050E56E4BEC1CF0E652C5
:103B9000E652E4CF00F0E4CFD9FF1200D9CFE5FF21
:103BA000E1CFD9FF00C0E5FF020EDBCF00F0E56AF0
:103BB0000050E56E4BEC1CF0E652E652E4CF00F00C
:103BC000E4CFD9FF1200896A8A6A8B6A8C6A8D6A8F
:103BD000926A936A949094929494949C949E956A19
:103BE000966A806A816A826A836A846A120000C067
:103BF000E5FF006A02019D5102019E1901E1002AC0
:103C00000050D880E866D890006A00360050E4CFB3
:103C100000F01200010EE56E02018B51E56E29ECF9
:103C200012F0E652E652E56A02018B51E56E29EC8C
:103C300012F0E652E652120000C0E5FF0201A15167
:103C4000006EFB0E0014A16F080EA111E56ECEEC04
:103C50001DF0E652E4CF00F01200400E0401096F9F
:103C6000400E0A6F060E0B6F880E086F1C0E716EE9
:103C7000010E02019D6F02019E6F1200010EE56EA2
:103C8000CEEC1DF0E652E56A020EE56E92EC19F0FC
:103C9000E652E652120011EEFFF021EEFFF0F86A54
:103CA000A68EA69C96EC1AF0A1EC1DF0FFD702019F
:103CB000A181080EA111E56ECEEC1DF0E6521200B6
:103CC0000201A185080EA111E56ECEEC1DF0E652B1
:103CD0001200A1AA06D00FEC00F0689C6890A19A8F
:103CE0006A6A120001001A3D000088020000040008
:103CF0000000480E0401146F1A0E726E1200A19A91
:103D0000A08AA28AF28EF28C12000F0EC16E070EEC
:103D1000B46E12005CEC1DF012000008FF094BEFBE
:043D20001EF012007F
:10400000D8CFE5FFE0CFE5FFE56EF3CFE5FFF4CFD6
:10401000E5FFE9CFE5FFEACFE5FFFACFE5FFFBCF0C
:10402000E5FFD9CFE5FFE1CFD9FFF6CFE5FFF7CF29
:10403000E5FFF8CFE5FFF5CFE5FFE4CFF5FFE4CFEF
:10404000F8FFE4CFF7FFE4CFF6FFE4CFD9FFE4CFEA
:10405000FBFFE4CFFAFFE4CFEAFFE4CFE9FFE4CFD0
:10406000F4FFE4CFF3FFE450E4CFE0FFE4CFD8FF68
:0240700010003E
:00000001FF
